{
    "contractName": "LosslessStaking",
    "abi": [
        {
            "anonymous": false,
            "inputs": [
                {
                    "indexed": true,
                    "internalType": "address",
                    "name": "previousAdmin",
                    "type": "address"
                },
                {
                    "indexed": true,
                    "internalType": "address",
                    "name": "newAdmin",
                    "type": "address"
                }
            ],
            "name": "AdminChanged",
            "type": "event"
        },
        {
            "anonymous": false,
            "inputs": [
                {
                    "indexed": true,
                    "internalType": "address",
                    "name": "previousAdmin",
                    "type": "address"
                },
                {
                    "indexed": true,
                    "internalType": "address",
                    "name": "newAdmin",
                    "type": "address"
                }
            ],
            "name": "PauseAdminChanged",
            "type": "event"
        },
        {
            "anonymous": false,
            "inputs": [
                {
                    "indexed": false,
                    "internalType": "address",
                    "name": "account",
                    "type": "address"
                }
            ],
            "name": "Paused",
            "type": "event"
        },
        {
            "anonymous": false,
            "inputs": [
                {
                    "indexed": true,
                    "internalType": "address",
                    "name": "previousAdmin",
                    "type": "address"
                },
                {
                    "indexed": true,
                    "internalType": "address",
                    "name": "newAdmin",
                    "type": "address"
                }
            ],
            "name": "RecoveryAdminChanged",
            "type": "event"
        },
        {
            "anonymous": false,
            "inputs": [
                {
                    "indexed": true,
                    "internalType": "address",
                    "name": "token",
                    "type": "address"
                },
                {
                    "indexed": true,
                    "internalType": "address",
                    "name": "account",
                    "type": "address"
                },
                {
                    "indexed": false,
                    "internalType": "uint256",
                    "name": "reportId",
                    "type": "uint256"
                }
            ],
            "name": "Staked",
            "type": "event"
        },
        {
            "anonymous": false,
            "inputs": [
                {
                    "indexed": false,
                    "internalType": "address",
                    "name": "account",
                    "type": "address"
                }
            ],
            "name": "Unpaused",
            "type": "event"
        },
        {
            "inputs": [],
            "name": "cooldownPeriod",
            "outputs": [
                {
                    "internalType": "uint256",
                    "name": "",
                    "type": "uint256"
                }
            ],
            "stateMutability": "view",
            "type": "function"
        },
        {
            "inputs": [
                {
                    "internalType": "address",
                    "name": "account",
                    "type": "address"
                },
                {
                    "internalType": "uint256",
                    "name": "reportId",
                    "type": "uint256"
                }
            ],
            "name": "getAccountStakes",
            "outputs": [
                {
                    "components": [
                        {
                            "internalType": "uint256",
                            "name": "timestamp",
                            "type": "uint256"
                        },
                        {
                            "internalType": "uint256",
                            "name": "coefficient",
                            "type": "uint256"
                        },
                        {
                            "internalType": "bool",
                            "name": "staked",
                            "type": "bool"
                        },
                        {
                            "internalType": "bool",
                            "name": "payed",
                            "type": "bool"
                        }
                    ],
                    "internalType": "struct LosslessStaking.StakeInfo",
                    "name": "",
                    "type": "tuple"
                }
            ],
            "stateMutability": "view",
            "type": "function"
        },
        {
            "inputs": [
                {
                    "internalType": "uint256",
                    "name": "reportId",
                    "type": "uint256"
                },
                {
                    "internalType": "address",
                    "name": "account",
                    "type": "address"
                }
            ],
            "name": "getIsAccountStaked",
            "outputs": [
                {
                    "internalType": "bool",
                    "name": "",
                    "type": "bool"
                }
            ],
            "stateMutability": "view",
            "type": "function"
        },
        {
            "inputs": [
                {
                    "internalType": "address",
                    "name": "_address",
                    "type": "address"
                },
                {
                    "internalType": "uint256",
                    "name": "reportId",
                    "type": "uint256"
                }
            ],
            "name": "getPayoutStatus",
            "outputs": [
                {
                    "internalType": "bool",
                    "name": "",
                    "type": "bool"
                }
            ],
            "stateMutability": "view",
            "type": "function"
        },
        {
            "inputs": [
                {
                    "internalType": "uint256",
                    "name": "reportId",
                    "type": "uint256"
                }
            ],
            "name": "getReportStakes",
            "outputs": [
                {
                    "internalType": "address[]",
                    "name": "",
                    "type": "address[]"
                }
            ],
            "stateMutability": "view",
            "type": "function"
        },
        {
            "inputs": [
                {
                    "internalType": "uint256",
                    "name": "reportId",
                    "type": "uint256"
                },
                {
                    "internalType": "address",
                    "name": "_address",
                    "type": "address"
                }
            ],
            "name": "getStakerCoefficient",
            "outputs": [
                {
                    "internalType": "uint256",
                    "name": "",
                    "type": "uint256"
                }
            ],
            "stateMutability": "view",
            "type": "function"
        },
        {
            "inputs": [
                {
                    "internalType": "address",
                    "name": "_address",
                    "type": "address"
                },
                {
                    "internalType": "uint256",
                    "name": "reportId",
                    "type": "uint256"
                }
            ],
            "name": "getStakingTimestamp",
            "outputs": [
                {
                    "internalType": "uint256",
                    "name": "",
                    "type": "uint256"
                }
            ],
            "stateMutability": "view",
            "type": "function"
        },
        {
            "inputs": [
                {
                    "internalType": "uint256",
                    "name": "reportId",
                    "type": "uint256"
                }
            ],
            "name": "getTotalStaked",
            "outputs": [
                {
                    "internalType": "uint256",
                    "name": "",
                    "type": "uint256"
                }
            ],
            "stateMutability": "view",
            "type": "function"
        },
        {
            "inputs": [],
            "name": "getVersion",
            "outputs": [
                {
                    "internalType": "uint256",
                    "name": "",
                    "type": "uint256"
                }
            ],
            "stateMutability": "pure",
            "type": "function"
        },
        {
            "inputs": [
                {
                    "internalType": "address",
                    "name": "_losslessReporting",
                    "type": "address"
                },
                {
                    "internalType": "address",
                    "name": "_losslessController",
                    "type": "address"
                }
            ],
            "name": "initialize",
            "outputs": [],
            "stateMutability": "nonpayable",
            "type": "function"
        },
        {
            "inputs": [],
            "name": "losslessController",
            "outputs": [
                {
                    "internalType": "contract ILssController",
                    "name": "",
                    "type": "address"
                }
            ],
            "stateMutability": "view",
            "type": "function"
        },
        {
            "inputs": [],
            "name": "losslessGovernance",
            "outputs": [
                {
                    "internalType": "contract ILssGovernance",
                    "name": "",
                    "type": "address"
                }
            ],
            "stateMutability": "view",
            "type": "function"
        },
        {
            "inputs": [],
            "name": "losslessReporting",
            "outputs": [
                {
                    "internalType": "contract ILssReporting",
                    "name": "",
                    "type": "address"
                }
            ],
            "stateMutability": "view",
            "type": "function"
        },
        {
            "inputs": [],
            "name": "losslessToken",
            "outputs": [
                {
                    "internalType": "contract ILERC20",
                    "name": "",
                    "type": "address"
                }
            ],
            "stateMutability": "view",
            "type": "function"
        },
        {
            "inputs": [],
            "name": "pause",
            "outputs": [],
            "stateMutability": "nonpayable",
            "type": "function"
        },
        {
            "inputs": [],
            "name": "paused",
            "outputs": [
                {
                    "internalType": "bool",
                    "name": "",
                    "type": "bool"
                }
            ],
            "stateMutability": "view",
            "type": "function"
        },
        {
            "inputs": [
                {
                    "internalType": "uint256",
                    "name": "reportId",
                    "type": "uint256"
                }
            ],
            "name": "reporterClaim",
            "outputs": [],
            "stateMutability": "nonpayable",
            "type": "function"
        },
        {
            "inputs": [
                {
                    "internalType": "uint256",
                    "name": "reportId",
                    "type": "uint256"
                }
            ],
            "name": "reporterClaimableAmount",
            "outputs": [
                {
                    "internalType": "uint256",
                    "name": "",
                    "type": "uint256"
                }
            ],
            "stateMutability": "view",
            "type": "function"
        },
        {
            "inputs": [
                {
                    "internalType": "address",
                    "name": "adr",
                    "type": "address"
                },
                {
                    "internalType": "uint256",
                    "name": "amount",
                    "type": "uint256"
                }
            ],
            "name": "retrieveCompensation",
            "outputs": [],
            "stateMutability": "nonpayable",
            "type": "function"
        },
        {
            "inputs": [
                {
                    "internalType": "address",
                    "name": "_losslessReporting",
                    "type": "address"
                }
            ],
            "name": "setILssReporting",
            "outputs": [],
            "stateMutability": "nonpayable",
            "type": "function"
        },
        {
            "inputs": [
                {
                    "internalType": "address",
                    "name": "_losslessGovernance",
                    "type": "address"
                }
            ],
            "name": "setLosslessGovernance",
            "outputs": [],
            "stateMutability": "nonpayable",
            "type": "function"
        },
        {
            "inputs": [
                {
                    "internalType": "address",
                    "name": "_losslessToken",
                    "type": "address"
                }
            ],
            "name": "setLosslessToken",
            "outputs": [],
            "stateMutability": "nonpayable",
            "type": "function"
        },
        {
            "inputs": [
                {
                    "internalType": "uint256",
                    "name": "reportId",
                    "type": "uint256"
                }
            ],
            "name": "stake",
            "outputs": [],
            "stateMutability": "nonpayable",
            "type": "function"
        },
        {
            "inputs": [
                {
                    "internalType": "uint256",
                    "name": "reportId",
                    "type": "uint256"
                }
            ],
            "name": "stakerClaim",
            "outputs": [],
            "stateMutability": "nonpayable",
            "type": "function"
        },
        {
            "inputs": [
                {
                    "internalType": "uint256",
                    "name": "reportId",
                    "type": "uint256"
                }
            ],
            "name": "stakerClaimableAmount",
            "outputs": [
                {
                    "internalType": "uint256",
                    "name": "",
                    "type": "uint256"
                }
            ],
            "stateMutability": "view",
            "type": "function"
        },
        {
            "inputs": [
                {
                    "internalType": "uint256",
                    "name": "",
                    "type": "uint256"
                },
                {
                    "internalType": "uint256",
                    "name": "",
                    "type": "uint256"
                }
            ],
            "name": "stakers",
            "outputs": [
                {
                    "internalType": "address",
                    "name": "",
                    "type": "address"
                }
            ],
            "stateMutability": "view",
            "type": "function"
        },
        {
            "inputs": [
                {
                    "internalType": "uint256",
                    "name": "",
                    "type": "uint256"
                }
            ],
            "name": "totalStakedOnReport",
            "outputs": [
                {
                    "internalType": "uint256",
                    "name": "",
                    "type": "uint256"
                }
            ],
            "stateMutability": "view",
            "type": "function"
        },
        {
            "inputs": [],
            "name": "unpause",
            "outputs": [],
            "stateMutability": "nonpayable",
            "type": "function"
        }
    ],
    "bytecode": "608060405234801561001057600080fd5b50612b52806100206000396000f3fe608060405234801561001057600080fd5b50600436106101c45760003560e01c80635b38b511116100f9578063b5b06b5411610097578063d0ab122611610071578063d0ab1226146104bb578063d5cb96d8146104ce578063ebf65aa5146104e1578063fc0cf012146104f457600080fd5b8063b5b06b54146103ce578063c8eca38714610495578063cfc97d69146104a857600080fd5b80637555e092116100d35780637555e0921461035d5780638456cb59146103935780638d6c18b71461039b578063a694fc3a146103bb57600080fd5b80635b38b5111461032c5780635c975abb1461033f57806363bf5a4f1461034a57600080fd5b806318b68046116101665780633a719d58116101405780633a719d58146102b85780633f4ba83a146102ee578063422b856c146102f6578063485cc9551461031957600080fd5b806318b68046146102725780632f8899f31461028557806338274599146102a557600080fd5b80630d8e6e2c116101a25780630d8e6e2c146102235780630fb861f01461022a578063107f59c11461023f578063156a2d6c1461025257600080fd5b806304646a49146101c95780630a187b22146101e55780630bf81b4214610210575b600080fd5b6101d260655481565b6040519081526020015b60405180910390f35b6067546101f8906001600160a01b031681565b6040516001600160a01b0390911681526020016101dc565b6101d261021e36600461285e565b610507565b60016101d2565b61023d61023836600461288f565b6107bb565b005b61023d61024d3660046128bb565b610956565b6101d261026036600461285e565b606d6020526000908152604090205481565b61023d6102803660046128bb565b610a5e565b6101d261029336600461285e565b6000908152606d602052604090205490565b6101d26102b336600461285e565b610b47565b6101d26102c63660046128df565b6001600160a01b03166000908152606b60209081526040808320938352929052206001015490565b61023d611044565b61030961030436600461288f565b61112e565b60405190151581526020016101dc565b61023d61032736600461290f565b611161565b61030961033a3660046128df565b61124b565b60335460ff16610309565b6066546101f8906001600160a01b031681565b6101d261036b36600461288f565b6001600160a01b03919091166000908152606b60209081526040808320938352929052205490565b61023d611276565b6103ae6103a936600461285e565b61135e565b6040516101dc919061293d565b61023d6103c936600461285e565b6113ca565b61045e6103dc36600461288f565b60408051608080820183526000808352602080840182905283850182905260609384018290526001600160a01b03969096168152606b865283812094815293855292829020825193840183528054845260018101549484019490945260029093015460ff80821615159284019290925261010090041615159181019190915290565b6040516101dc9190815181526020808301519082015260408083015115159082015260609182015115159181019190915260800190565b61023d6104a33660046128bb565b611b8e565b61023d6104b636600461285e565b611c77565b6069546101f8906001600160a01b031681565b61023d6104dc36600461285e565b6121ca565b6101f86104ef36600461298a565b612676565b6068546101f8906001600160a01b031681565b6000610513338361112e565b156105395760405162461bcd60e51b8152600401610530906129ac565b60405180910390fd5b6067546040516340fd9f1f60e11b8152600481018490526000916001600160a01b0316906381fb3e3e9060240160206040518083038186803b15801561057e57600080fd5b505afa158015610592573d6000803e3d6000fd5b505050506040513d601f19601f820116820180604052508101906105b691906129e3565b9050336001600160a01b038216146106105760405162461bcd60e51b815260206004820152601960248201527f4c53533a204d75737420626520746865207265706f72746572000000000000006044820152606401610530565b600080600080606860009054906101000a90046001600160a01b03166001600160a01b031663722580b66040518163ffffffff1660e01b815260040160206040518083038186803b15801561066457600080fd5b505afa158015610678573d6000803e3d6000fd5b505050506040513d601f19601f8201168201806040525081019061069c9190612a00565b6067546040516327b4317760e21b8152600481018a90529192506001600160a01b031690639ed0c5dc9060240160206040518083038186803b1580156106e157600080fd5b505afa1580156106f5573d6000803e3d6000fd5b505050506040513d601f19601f820116820180604052508101906107199190612a00565b60675460408051630cfd5f0d60e01b815281519395506001600160a01b0390921692630cfd5f0d926004808201939291829003018186803b15801561075d57600080fd5b505afa158015610771573d6000803e3d6000fd5b505050506040513d601f19601f820116820180604052508101906107959190612a19565b909450925060646107a68584612a53565b6107b09190612a72565b979650505050505050565b6068546001600160a01b03163314806107de57506069546001600160a01b031633145b8061087f5750606860009054906101000a90046001600160a01b03166001600160a01b031663f851a4406040518163ffffffff1660e01b815260040160206040518083038186803b15801561083257600080fd5b505afa158015610846573d6000803e3d6000fd5b505050506040513d601f19601f8201168201806040525081019061086a91906129e3565b6001600160a01b0316336001600160a01b0316145b6108cb5760405162461bcd60e51b815260206004820152601960248201527f4c53533a2041646d696e206f72204c5353205343206f6e6c79000000000000006044820152606401610530565b60665460405163a9059cbb60e01b81526001600160a01b038481166004830152602482018490529091169063a9059cbb90604401602060405180830381600087803b15801561091957600080fd5b505af115801561092d573d6000803e3d6000fd5b505050506040513d601f19601f820116820180604052508101906109519190612a94565b505050565b606860009054906101000a90046001600160a01b03166001600160a01b0316635f6529a36040518163ffffffff1660e01b815260040160206040518083038186803b1580156109a457600080fd5b505afa1580156109b8573d6000803e3d6000fd5b505050506040513d601f19601f820116820180604052508101906109dc91906129e3565b6001600160a01b0316336001600160a01b031614610a3c5760405162461bcd60e51b815260206004820152601a60248201527f4c53533a204d757374206265207265636f7665727941646d696e0000000000006044820152606401610530565b606780546001600160a01b0319166001600160a01b0392909216919091179055565b606854604080516303e1469160e61b8152905133926001600160a01b03169163f851a440916004808301926020929190829003018186803b158015610aa257600080fd5b505afa158015610ab6573d6000803e3d6000fd5b505050506040513d601f19601f82011682018060405250810190610ada91906129e3565b6001600160a01b031614610b255760405162461bcd60e51b81526020600482015260126024820152712629a99d1026bab9ba1031329030b236b4b760711b6044820152606401610530565b606680546001600160a01b0319166001600160a01b0392909216919091179055565b6000610b53338361112e565b15610b705760405162461bcd60e51b8152600401610530906129ac565b610b7a823361124b565b610bc65760405162461bcd60e51b815260206004820152601760248201527f4c53533a20596f75277265206e6f74207374616b696e670000000000000000006044820152606401610530565b6000806000806000806000806000806000606860009054906101000a90046001600160a01b03166001600160a01b031663722580b66040518163ffffffff1660e01b815260040160206040518083038186803b158015610c2557600080fd5b505afa158015610c39573d6000803e3d6000fd5b505050506040513d601f19601f82011682018060405250810190610c5d9190612a00565b9350606760009054906101000a90046001600160a01b03166001600160a01b0316639ed0c5dc8e6040518263ffffffff1660e01b8152600401610ca291815260200190565b60206040518083038186803b158015610cba57600080fd5b505afa158015610cce573d6000803e3d6000fd5b505050506040513d601f19601f82011682018060405250810190610cf29190612a00565b60675460408051630cfd5f0d60e01b81528151939c506001600160a01b0390921692630cfd5f0d926004808201939291829003018186803b158015610d3657600080fd5b505afa158015610d4a573d6000803e3d6000fd5b505050506040513d601f19601f82011682018060405250810190610d6e9190612a19565b809b50819c505050606760009054906101000a90046001600160a01b03166001600160a01b0316635acbfb968e6040518263ffffffff1660e01b8152600401610db991815260200190565b60206040518083038186803b158015610dd157600080fd5b505afa158015610de5573d6000803e3d6000fd5b505050506040513d601f19601f82011682018060405250810190610e0991906129e3565b9150606760009054906101000a90046001600160a01b03166001600160a01b031663aeb60d7e8e6040518263ffffffff1660e01b8152600401610e4e91815260200190565b60206040518083038186803b158015610e6657600080fd5b505afa158015610e7a573d6000803e3d6000fd5b505050506040513d601f19601f82011682018060405250810190610e9e91906129e3565b90506064606760009054906101000a90046001600160a01b03166001600160a01b031663a315d7aa6040518163ffffffff1660e01b815260040160206040518083038186803b158015610ef057600080fd5b505afa158015610f04573d6000803e3d6000fd5b505050506040513d601f19601f82011682018060405250810190610f289190612a00565b610f32908b612a53565b610f3c9190612a72565b9850610f6b8d336001600160a01b03166000908152606b60209081526040808320938352929052206001015490565b9750606860009054906101000a90046001600160a01b03166001600160a01b031663cc0a95b58e6040518263ffffffff1660e01b8152600401610fb091815260200190565b60206040518083038186803b158015610fc857600080fd5b505afa158015610fdc573d6000803e3d6000fd5b505050506040513d601f19601f820116820180604052508101906110009190612a00565b925061100e83612710612a72565b945061101a8886612a53565b9650612710611029888b612a53565b6110339190612a72565b9d9c50505050505050505050505050565b606860009054906101000a90046001600160a01b03166001600160a01b0316632f11d6536040518163ffffffff1660e01b815260040160206040518083038186803b15801561109257600080fd5b505afa1580156110a6573d6000803e3d6000fd5b505050506040513d601f19601f820116820180604052508101906110ca91906129e3565b6001600160a01b0316336001600160a01b0316146111245760405162461bcd60e51b81526020600482015260176024820152762629a99d1026bab9ba103132903830bab9b2a0b236b4b760491b6044820152606401610530565b61112c6126ae565b565b6001600160a01b03919091166000908152606b602090815260408083209383529290522060020154610100900460ff1690565b600054610100900460ff168061117a575060005460ff16155b6111dd5760405162461bcd60e51b815260206004820152602e60248201527f496e697469616c697a61626c653a20636f6e747261637420697320616c72656160448201526d191e481a5b9a5d1a585b1a5e995960921b6064820152608401610530565b600054610100900460ff161580156111ff576000805461ffff19166101011790555b61012c606555606780546001600160a01b038086166001600160a01b03199283161790925560688054928516929091169190911790558015610951576000805461ff0019169055505050565b6001600160a01b03166000908152606b60209081526040808320938352929052206002015460ff1690565b606860009054906101000a90046001600160a01b03166001600160a01b0316632f11d6536040518163ffffffff1660e01b815260040160206040518083038186803b1580156112c457600080fd5b505afa1580156112d8573d6000803e3d6000fd5b505050506040513d601f19601f820116820180604052508101906112fc91906129e3565b6001600160a01b0316336001600160a01b0316146113565760405162461bcd60e51b81526020600482015260176024820152762629a99d1026bab9ba103132903830bab9b2a0b236b4b760491b6044820152606401610530565b61112c612741565b6000818152606c60209081526040918290208054835181840281018401909452808452606093928301828280156113be57602002820191906000526020600020905b81546001600160a01b031681526001909101906020018083116113a0575b50505050509050919050565b60685460405163fe575a8760e01b81523360048201526001600160a01b039091169063fe575a879060240160206040518083038186803b15801561140d57600080fd5b505afa158015611421573d6000803e3d6000fd5b505050506040513d601f19601f820116820180604052508101906114459190612a94565b156114625760405162461bcd60e51b815260040161053090612ab6565b606954604051630b18acb760e21b8152600481018390526001600160a01b0390911690632c62b2dc9060240160206040518083038186803b1580156114a657600080fd5b505afa1580156114ba573d6000803e3d6000fd5b505050506040513d601f19601f820116820180604052508101906114de9190612a94565b1561152b5760405162461bcd60e51b815260206004820152601c60248201527f4c53533a205265706f727420616c7265616479207265736f6c766564000000006044820152606401610530565b611535813361124b565b156115785760405162461bcd60e51b81526020600482015260136024820152721314d4ce88185b1c9958591e481cdd185ad959606a1b6044820152606401610530565b6067546040516340fd9f1f60e11b81526004810183905233916001600160a01b0316906381fb3e3e9060240160206040518083038186803b1580156115bc57600080fd5b505afa1580156115d0573d6000803e3d6000fd5b505050506040513d601f19601f820116820180604052508101906115f491906129e3565b6001600160a01b0316141561164b5760405162461bcd60e51b815260206004820152601b60248201527f4c53533a207265706f727465722063616e206e6f74207374616b6500000000006044820152606401610530565b60675460405163db04b62560e01b8152600481018390526000916001600160a01b03169063db04b6259060240160206040518083038186803b15801561169057600080fd5b505afa1580156116a4573d6000803e3d6000fd5b505050506040513d601f19601f820116820180604052508101906116c89190612a00565b9050426116d682603c612aed565b106117235760405162461bcd60e51b815260206004820181905260248201527f4c53533a204d75737420776169742031206d696e75746520746f207374616b656044820152606401610530565b6000821180156117b65750606854604080516355f2b28d60e11b8152905142926001600160a01b03169163abe5651a916004808301926020929190829003018186803b15801561177257600080fd5b505afa158015611786573d6000803e3d6000fd5b505050506040513d601f19601f820116820180604052508101906117aa9190612a00565b6117b49083612aed565b115b6118025760405162461bcd60e51b815260206004820152601b60248201527f4c53533a207265706f727420646f6573206e6f742065786973747300000000006044820152606401610530565b60685460408051633912c05b60e11b815290516000926001600160a01b03169163722580b6916004808301926020929190829003018186803b15801561184757600080fd5b505afa15801561185b573d6000803e3d6000fd5b505050506040513d601f19601f8201168201806040525081019061187f9190612a00565b6066546040516370a0823160e01b815233600482015291925082916001600160a01b03909116906370a082319060240160206040518083038186803b1580156118c757600080fd5b505afa1580156118db573d6000803e3d6000fd5b505050506040513d601f19601f820116820180604052508101906118ff9190612a00565b101561194d5760405162461bcd60e51b815260206004820152601d60248201527f4c53533a204e6f7420656e6f75676820244c535320746f207374616b650000006044820152606401610530565b6000611958836127bc565b6000858152606c602090815260408083208054600180820183559185528385200180546001600160a01b031916339081179091558452606b835281842089855290925291829020428155808201849055600201805461ffff191690911790556068549051631134ffab60e31b815260048101879052602481018390529192506001600160a01b0316906389a7fd5890604401600060405180830381600087803b158015611a0457600080fd5b505af1158015611a18573d6000803e3d6000fd5b50506066546040516323b872dd60e01b8152336004820152306024820152604481018690526001600160a01b0390911692506323b872dd9150606401602060405180830381600087803b158015611a6e57600080fd5b505af1158015611a82573d6000803e3d6000fd5b505050506040513d601f19601f82011682018060405250810190611aa69190612a94565b506000848152606d602052604081208054849290611ac5908490612aed565b9091555050606754604051632d65fdcb60e11b81526004810186905233916001600160a01b031690635acbfb969060240160206040518083038186803b158015611b0e57600080fd5b505afa158015611b22573d6000803e3d6000fd5b505050506040513d601f19601f82011682018060405250810190611b4691906129e3565b6001600160a01b03167f5dac0c1b1112564a045ba943c9d50270893e8e826c49be8e7073adc713ab7bd786604051611b8091815260200190565b60405180910390a350505050565b606854604080516303e1469160e61b8152905133926001600160a01b03169163f851a440916004808301926020929190829003018186803b158015611bd257600080fd5b505afa158015611be6573d6000803e3d6000fd5b505050506040513d601f19601f82011682018060405250810190611c0a91906129e3565b6001600160a01b031614611c555760405162461bcd60e51b81526020600482015260126024820152712629a99d1026bab9ba1031329030b236b4b760711b6044820152606401610530565b606980546001600160a01b0319166001600160a01b0392909216919091179055565b60685460405163fe575a8760e01b81523360048201526001600160a01b039091169063fe575a879060240160206040518083038186803b158015611cba57600080fd5b505afa158015611cce573d6000803e3d6000fd5b505050506040513d601f19601f82011682018060405250810190611cf29190612a94565b15611d0f5760405162461bcd60e51b815260040161053090612ab6565b6067546040516340fd9f1f60e11b81526004810183905233916001600160a01b0316906381fb3e3e9060240160206040518083038186803b158015611d5357600080fd5b505afa158015611d67573d6000803e3d6000fd5b505050506040513d601f19601f82011682018060405250810190611d8b91906129e3565b6001600160a01b031614611de15760405162461bcd60e51b815260206004820152601a60248201527f4c53533a204d7573742075736572207374616b6572436c61696d0000000000006044820152606401610530565b60685460405163695f063b60e01b8152336004820152602481018390526001600160a01b039091169063695f063b9060440160206040518083038186803b158015611e2b57600080fd5b505afa158015611e3f573d6000803e3d6000fd5b505050506040513d601f19601f82011682018060405250810190611e639190612a94565b15611e805760405162461bcd60e51b8152600401610530906129ac565b606954604051630b18acb760e21b8152600481018390526001600160a01b0390911690632c62b2dc9060240160206040518083038186803b158015611ec457600080fd5b505afa158015611ed8573d6000803e3d6000fd5b505050506040513d601f19601f82011682018060405250810190611efc9190612a94565b611f415760405162461bcd60e51b81526020600482015260166024820152752629a99d102932b837b93a1039ba34b6361037b832b760511b6044820152606401610530565b600080611f4d83610507565b9150606860009054906101000a90046001600160a01b03166001600160a01b031663722580b66040518163ffffffff1660e01b815260040160206040518083038186803b158015611f9d57600080fd5b505afa158015611fb1573d6000803e3d6000fd5b505050506040513d601f19601f82011682018060405250810190611fd59190612a00565b60685460405163a75fec5b60e01b815233600482015260016024820152604481018690529192506001600160a01b03169063a75fec5b90606401600060405180830381600087803b15801561202957600080fd5b505af115801561203d573d6000803e3d6000fd5b5050606754604051632d65fdcb60e11b8152600481018790526001600160a01b039091169250635acbfb96915060240160206040518083038186803b15801561208557600080fd5b505afa158015612099573d6000803e3d6000fd5b505050506040513d601f19601f820116820180604052508101906120bd91906129e3565b60405163a9059cbb60e01b8152336004820152602481018490526001600160a01b03919091169063a9059cbb90604401602060405180830381600087803b15801561210757600080fd5b505af115801561211b573d6000803e3d6000fd5b505050506040513d601f19601f8201168201806040525081019061213f9190612a94565b5060665460405163a9059cbb60e01b8152336004820152602481018390526001600160a01b039091169063a9059cbb90604401602060405180830381600087803b15801561218c57600080fd5b505af11580156121a0573d6000803e3d6000fd5b505050506040513d601f19601f820116820180604052508101906121c49190612a94565b50505050565b60685460405163fe575a8760e01b81523360048201526001600160a01b039091169063fe575a879060240160206040518083038186803b15801561220d57600080fd5b505afa158015612221573d6000803e3d6000fd5b505050506040513d601f19601f820116820180604052508101906122459190612a94565b156122625760405162461bcd60e51b815260040161053090612ab6565b6067546040516340fd9f1f60e11b81526004810183905233916001600160a01b0316906381fb3e3e9060240160206040518083038186803b1580156122a657600080fd5b505afa1580156122ba573d6000803e3d6000fd5b505050506040513d601f19601f820116820180604052508101906122de91906129e3565b6001600160a01b031614156123355760405162461bcd60e51b815260206004820152601c60248201527f4c53533a204d7573742075736572207265706f72746572436c61696d000000006044820152606401610530565b61233f338261112e565b1561235c5760405162461bcd60e51b8152600401610530906129ac565b606954604051630b18acb760e21b8152600481018390526001600160a01b0390911690632c62b2dc9060240160206040518083038186803b1580156123a057600080fd5b505afa1580156123b4573d6000803e3d6000fd5b505050506040513d601f19601f820116820180604052508101906123d89190612a94565b61241d5760405162461bcd60e51b81526020600482015260166024820152752629a99d102932b837b93a1039ba34b6361037b832b760511b6044820152606401610530565b600080600061242b84610b47565b9250606860009054906101000a90046001600160a01b03166001600160a01b031663722580b66040518163ffffffff1660e01b815260040160206040518083038186803b15801561247b57600080fd5b505afa15801561248f573d6000803e3d6000fd5b505050506040513d601f19601f820116820180604052508101906124b39190612a00565b606754604051632d65fdcb60e11b8152600481018790529193506001600160a01b031690635acbfb969060240160206040518083038186803b1580156124f857600080fd5b505afa15801561250c573d6000803e3d6000fd5b505050506040513d601f19601f8201168201806040525081019061253091906129e3565b905061256a84336001600160a01b03166000908152606b6020908152604080832093835292905220600201805461ff001916610100179055565b60405163a9059cbb60e01b8152336004820152602481018490526001600160a01b0382169063a9059cbb90604401602060405180830381600087803b1580156125b257600080fd5b505af11580156125c6573d6000803e3d6000fd5b505050506040513d601f19601f820116820180604052508101906125ea9190612a94565b5060665460405163a9059cbb60e01b8152336004820152602481018490526001600160a01b039091169063a9059cbb90604401602060405180830381600087803b15801561263757600080fd5b505af115801561264b573d6000803e3d6000fd5b505050506040513d601f19601f8201168201806040525081019061266f9190612a94565b5050505050565b606c602052816000526040600020818154811061269257600080fd5b6000918252602090912001546001600160a01b03169150829050565b60335460ff166126f75760405162461bcd60e51b815260206004820152601460248201527314185d5cd8589b194e881b9bdd081c185d5cd95960621b6044820152606401610530565b6033805460ff191690557f5db9ee0a495bf2e6ff9c91a7834c1ba4fdd244a5e8aa4e537bd38aeae4b073aa335b6040516001600160a01b03909116815260200160405180910390a1565b60335460ff16156127875760405162461bcd60e51b815260206004820152601060248201526f14185d5cd8589b194e881c185d5cd95960821b6044820152606401610530565b6033805460ff191660011790557f62e78cea01bee320cd4e420270b5ea74000d11b0c9f74754ebdbfc544b05a2586127243390565b60006127c88242612b05565b606860009054906101000a90046001600160a01b03166001600160a01b031663abe5651a6040518163ffffffff1660e01b815260040160206040518083038186803b15801561281657600080fd5b505afa15801561282a573d6000803e3d6000fd5b505050506040513d601f19601f8201168201806040525081019061284e9190612a00565b6128589190612a72565b92915050565b60006020828403121561287057600080fd5b5035919050565b6001600160a01b038116811461288c57600080fd5b50565b600080604083850312156128a257600080fd5b82356128ad81612877565b946020939093013593505050565b6000602082840312156128cd57600080fd5b81356128d881612877565b9392505050565b600080604083850312156128f257600080fd5b82359150602083013561290481612877565b809150509250929050565b6000806040838503121561292257600080fd5b823561292d81612877565b9150602083013561290481612877565b6020808252825182820181905260009190848201906040850190845b8181101561297e5783516001600160a01b031683529284019291840191600101612959565b50909695505050505050565b6000806040838503121561299d57600080fd5b50508035926020909101359150565b60208082526018908201527f4c53533a20596f7520616c726561647920636c61696d65640000000000000000604082015260600190565b6000602082840312156129f557600080fd5b81516128d881612877565b600060208284031215612a1257600080fd5b5051919050565b60008060408385031215612a2c57600080fd5b505080516020909101519092909150565b634e487b7160e01b600052601160045260246000fd5b6000816000190483118215151615612a6d57612a6d612a3d565b500290565b600082612a8f57634e487b7160e01b600052601260045260246000fd5b500490565b600060208284031215612aa657600080fd5b815180151581146128d857600080fd5b60208082526017908201527f4c53533a20596f752063616e6e6f74206f706572617465000000000000000000604082015260600190565b60008219821115612b0057612b00612a3d565b500190565b600082821015612b1757612b17612a3d565b50039056fea2646970667358221220141207678168b120a466c46711f230d44680941da8d19193b351bafcda0ed64264736f6c63430008090033",
    "sourcePath": "/home/tkwk/Proyects/lossless-v3/contracts/LosslessV3/LosslessStaking.sol",
    "compiler": {
        "name": "solc",
        "version": "0.8.9+commit.e5eed63a"
    },
    "functionHashes": {
        "cooldownPeriod()": "04646a49",
        "getAccountStakes(address,uint256)": "b5b06b54",
        "getIsAccountStaked(uint256,address)": "5b38b511",
        "getPayoutStatus(address,uint256)": "422b856c",
        "getReportStakes(uint256)": "8d6c18b7",
        "getStakerCoefficient(uint256,address)": "3a719d58",
        "getStakingTimestamp(address,uint256)": "7555e092",
        "getTotalStaked(uint256)": "2f8899f3",
        "getVersion()": "0d8e6e2c",
        "initialize(address,address)": "485cc955",
        "losslessController()": "fc0cf012",
        "losslessGovernance()": "d0ab1226",
        "losslessReporting()": "0a187b22",
        "losslessToken()": "63bf5a4f",
        "pause()": "8456cb59",
        "paused()": "5c975abb",
        "reporterClaim(uint256)": "cfc97d69",
        "reporterClaimableAmount(uint256)": "0bf81b42",
        "retrieveCompensation(address,uint256)": "0fb861f0",
        "setILssReporting(address)": "107f59c1",
        "setLosslessGovernance(address)": "c8eca387",
        "setLosslessToken(address)": "18b68046",
        "stake(uint256)": "a694fc3a",
        "stakerClaim(uint256)": "d5cb96d8",
        "stakerClaimableAmount(uint256)": "38274599",
        "stakers(uint256,uint256)": "ebf65aa5",
        "totalStakedOnReport(uint256)": "156a2d6c",
        "unpause()": "3f4ba83a"
    },
    "gasEstimates": {
        "creation": {
            "codeDepositCost": "2218000",
            "executionCost": "2368",
            "totalCost": "2220368"
        },
        "external": {
            "cooldownPeriod()": "2331",
            "getAccountStakes(address,uint256)": "7267",
            "getIsAccountStaked(uint256,address)": "2707",
            "getPayoutStatus(address,uint256)": "2760",
            "getReportStakes(uint256)": "infinite",
            "getStakerCoefficient(uint256,address)": "2671",
            "getStakingTimestamp(address,uint256)": "2664",
            "getTotalStaked(uint256)": "2495",
            "getVersion()": "227",
            "initialize(address,address)": "infinite",
            "losslessController()": "2447",
            "losslessGovernance()": "2381",
            "losslessReporting()": "2406",
            "losslessToken()": "2427",
            "pause()": "infinite",
            "paused()": "2372",
            "reporterClaim(uint256)": "infinite",
            "reporterClaimableAmount(uint256)": "infinite",
            "retrieveCompensation(address,uint256)": "infinite",
            "setILssReporting(address)": "infinite",
            "setLosslessGovernance(address)": "infinite",
            "setLosslessToken(address)": "infinite",
            "stake(uint256)": "infinite",
            "stakerClaim(uint256)": "infinite",
            "stakerClaimableAmount(uint256)": "infinite",
            "stakers(uint256,uint256)": "4793",
            "totalStakedOnReport(uint256)": "2539",
            "unpause()": "infinite"
        },
        "internal": {
            "calculateCoefficient(uint256)": "infinite",
            "setPayoutStatus(uint256,address)": "infinite"
        }
    }
}